S01F00004579616E7472615F323031385F66696E616C5F636F64652E73726563A4
S1130000B2C00000D0C00000CEC00000CCC00000D0
S1130010CAC00000C8C00000C6C00000C4C00000C0
S1130020C2C00000C0C00000BEC00000BCC00000D0
S1130030BAC00000B8C00000B6C00000B4C00000E0
S1130040B2C00000B0C00000AEC00000ACC00000F0
S1130050AAC00000A8C00000A6C00000A4C0000000
S1130060A2C00000A0C000009EC000009CC0000010
S11300709AC0000098C0000096C0000094C0000020
S113008092C0000090C000008EC000008CC0000030
S11300908AC0000088C0000086C0000084C0000040
S11300A082C0000080C000007EC000007CC0000050
S11300B07AC0000078C0000076C0000074C0000060
S11300C072C0000070C000006EC000006CC0000070
S11300D06AC0000068C0000066C0000064C0000080
S11300E062C0000007634236B79BD8A71A39685626
S11300F018AEBAAB558C1D3CB7CC5763BD6DEDFD46
S1130100753EF6177231BF000000803F0800000002
S1130110BE922449123EABAAAA2ABECDCCCC4C3EF8
S113012000000080BEABAAAAAA3E00000000BF00E7
S11301300000803F0000000000084178D3BB4387E3
S1130140D1133D190E3CC3BD4282AD2B3E68EC82F7
S113015076BED98FE1A93E4C80EFFFBE01C4FF7F7C
S11301603F000000000011241FBECFEFD1E2DEBF2C
S1130170CDBF00E00CBF13E0A0E0B2E0E6E7F7E19A
S113018000E00BBF02C007900D92A038B107D9F769
S11301902AE0A0E8B3E001C01D92AD36B207E1F752
S11301A017D70C94B90B2CCF219A2998089583B1B1
S11301B0826085B9089583B18D7F85B90895F894D7
S11301C0F3DF78940895F3DF2AEA34ED8CE191E0CB
S11301D02150304080409040D9F70000ECDF2FEFF1
S11301E033ED80E3215030408040E1F700C000004F
S11301F00895259A2D9A0895269A2E9A0895F9DF3E
S1130200FBCF0895E1E8F0E010828CEF8093850045
S113021081E08093840093E0909389008FEF809332
S1130220880090938B0080938A009093870080933A
S113023086008BEA80938000109282008CE0808399
S11302400895F894DCDFDEDF78940895682F70E079
S113025080E090E00E9463092FEE39EC43E95FE30C
S11302600E94540A9B01AC0160E070E080E89FE3C7
S113027091D72AE939EF4EE255E40E94F10920E0D2
S113028030E040E251E40E94F109ECD7CB01613245
S1130290734010F080E293E0089510BA11BA1092FE
S11302A0070110920801089581B18F6081B982B16C
S11302B0807F82B9EAE0F1E0808188618083EBE0AD
S11302C0F1E08081886180830895E7DFEDCF0895B0
S11302D0E1E2F1E010828FEF8093250191E09093A9
S11302E02401109229018093280110922B018093FC
S11302F02A0110922D0180932C0189EA8093200118
S11303008BE080830895EAE7F0E0108210927B008E
S113031080E280937C0080E880BF86E88083089533
S1130320883018F098E090937B0087708062809307
S11303307C00EAE7F0E0808180648083808184FF30
S1130340FDCF80917900EAE7F0E09081906190839D
S113035010927B00089589E0E3DF80936C0A76CFE6
S1130360089592B1907F8F70982B92B9089582ED81
S11303708093280188EC80932A0186E0F2CF0895C7
S113038080E0EFCF08958AE0ECCF089585E0E9CFCF
S11303900895FCDF2FEF83EC99E0215080409040DA
S11303A0E1F700C0000081E0BBDF90E02091720320
S11303B0309173038217930714F4E8DFF4CF2FEF1F
S11303C080E792E0215080409040E1F700C00000B7
S11303D00895D9DF2FEF83EC99E0215080409040BD
S11303E0E1F700C0000083E09BDF90E020917203FE
S11303F0309173038217930714F4C5DFF4CF2FEF02
S113040080E792E0215080409040E1F700C0000076
S11304100895F8945ADF77DF5BDF7894089582E0DB
S11304207FDF90E02091720330917303281739071E
S113043024F410926B0A10926A0A83E071DF90E050
S113044020917203309173032817390734F48FEF26
S11304509FEF90936B0A80936A0A81E061DF90E0DA
S113046020917203309173032817390734F481E023
S113047090E090936B0A80936A0A83E051DF90E0E6
S113048020917203309173038217930764F482E01E
S113049047DF90E020917203309173038217930732
S11304A014F481E03DCF089580916A0A90916B0A1B
S11304B0009711F45CCF08958130910511F466CF53
S11304C00895019609F45FCF0895A9DFEDCF08954B
S11304D00F931F93CF93DF93C82F49DF2FEF80E74C
S11304E092E0215080409040E1F700C00000D0E04D
S11304F000E010E00C171D0709F468C0E6DF2BDFED
S11305009093690A8093680A803591051CF438DF5A
S11305105ADE5CC083E004DF90E0209172033091E6
S113052073032817390754F482E0FADE90E020912F
S113053072033091730328173907ACF082E0F0DEC0
S113054090E020917203309173032817390794F6D1
S113055081E0E6DE90E02091720330917303281766
S113056039070CF0C7CF83E0DBDE90E02091720303
S1130570309173032817390754F482E0D1DE90E0F8
S1130580209172033091730328173907A4F082E095
S1130590C7DE90E020917203309173032817390766
S11305A064F481E0BDDE90E0209172033091730326
S11305B02817390714F4DBDED6CF8FE39CE90197C3
S11305C0F1F700C000000F5F1F4F94CFD0DE9FEF04
S11305D024E38CE0915020408040E1F700C000000B
S11305E0DF91CF911F910F910895E9DD12DF29CE9C
S11305F0089518161906D4F442E953E02AE3289F13
S1130600B001299F700D11246E567C4F880F991FDD
S11306109A01280F391FFA0111921192E217F30778
S1130620D9F7465C5F4F4617570791F7089581E065
S113063090E09093D1038093D00390930904809326
S1130640080490930D0480930C04909345048093C4
S113065044049093490480934804909381048093C4
S1130660800490938504809384049093BD048093C4
S1130670BC049093C1048093C0049093F9048093C4
S1130680F80490934F0480934E0490932F05809325
S11306902E059093390580933805909371058093C6
S11306A0700590937505809374059093AD058093C0
S11306B0AC0590937B0580937A0590935B068093B9
S11306C05A069093B7058093B60590939706809346
S11306D0960690939D0680939C069093650680935E
S11306E064069093C9048093C8049093E1058093B1
S11306F0E005909305058093040590931D0680936F
S11307001C0690932506809324069093ED05809310
S1130710EC059093B1068093B0069093A90880935A
S1130720A8089093BD088093BC089093F508809323
S1130730F4089093B9088093B80890938108809343
S1130740800890937D0880937C089093450880935B
S113075044089093330680933206909383078093E2
S1130760820790939107809390079093C907809391
S1130770C80790938D0780938C07909355078093B7
S113078054079093510780935007909319078093CF
S1130790180790937106809370069093F9078093DD
S11307A0F807909309088093080890934108809370
S11307B040089093F3058093F2059093D3068093B9
S11307C0D2069093DD068093DC0690931507809300
S11307D014079093E5078093E40790932D04809386
S11307E02C049093C3068093C206909323048093B1
S11307F0220490934B0880934A0890932B0980938A
S11308002A099093290780932807909321098093BC
S11308102009909335098093340990936D0980934E
S11308206C0990937109809370099093A90980933E
S1130830A8099093AD098093AC099093E50980933E
S1130840E4099093AF098093AE0990931F0A8093B3
S11308501E0A08952F923F924F925F926F927F9259
S11308608F929F92AF92BF92CF92DF92EF92FF92BC
S11308700F931F93CF93DF93A091600AB091610A05
S11308806090620A7090630AC091640AD091650A0C
S11308908090660A9090670A0F2EF0E0AF2EF2E087
S11308A0BF2EF02DC12CD12CE12CF12C00E010E056
S11308B044244394512CF50120E030E02C2C3D2CB1
S11308C0419151914617570739F46817790741F058
S11308D03901A22DB32D15C04817590779F405C065
S11308E03901A22DB32D042D152D0130110571F000
S11308F04901C22DD32DE42CF52C12C00130110571
S113090079F441E0E416F10449F402C04901E60136
S1130910EE24E394F12C01E010E007C0042D152D22
S11309202F5F3F4F2531310559F62FEFC21AD20AF6
S11309304AE2A40EB11C28E0C216D10409F0BBCFD0
S1130940B093610AA093600A7092630A6092620A8B
S1130950D093650AC093640A9092670A8092660AEB
S1130960C40186199709181619066CF4AC17BD074B
S113097071F1CA1BDB0B1C161D0664F1DD236CF53B
S113098086E090E03EC0992394F4AC17BD0741F192
S1130990CA1BDB0B1C161D0634F18D2F881F8827FC
S11309A0881F90E0880F991F880F991F2AC0681428
S11309B07904E1F4AC17BD07E1F0CA1BDB0B1C168C
S11309C01D06D4F0DD23DCF485E090E01AC087E056
S11309D090E017C088E090E014C080E090E011C07F
S11309E083E090E00EC082E090E00BC080E090E0F5
S11309F008C080E090E005C081E090E002C080E0A3
S1130A0090E0DF91CF911F910F91FF90EF90DF90D5
S1130A10CF90BF90AF909F908F907F906F905F909A
S1130A204F903F902F9008957093710360937003DB
S1130A30681B790B653071054CF0685071092DE223
S1130A40269FC001279F900D112408956C3F8FEFBE
S1130A5078074CF4685F7F4F2DE2269FC001279FE3
S1130A60900D112408952DE2269FC001279F900D1B
S1130A7011240895CF93DF93DB01FC0120E030E0E3
S1130A806FE077E24D915D91452B41F440815181B6
S1130A90461757071CF4D22FC32FBA012F5F3F4FBD
S1130AA032962D31310571F76F30774219F08D2F61
S1130AB09C2F02C08FE097E2DF91CF910895CF93EE
S1130AC0DF93FB01EE0FFF1FE80FF91F2081318137
S1130AD02F3F4FEF340789F4809190039091910355
S1130AE0FC01EE0FFF1FEC5DF54F718360830196EF
S1130AF0909391038093900313C0EB01B901DFDF5E
S1130B008091900390919103FC01EE0FFF1FEC5D27
S1130B10F54FD183C0830196909391038093900302
S1130B20DF91CF9108952F923F924F925F926F92EF
S1130B307F928F929F92AF92BF92CF92DF92EF9269
S1130B40FF920F931F93CF93DF93CDB7DEB7CC5EA5
S1130B50D1090FB6F894DEBF0FBECDBFC751DF4F2A
S1130B6059834883C95ED0402AE3DE01DB96FD0148
S1130B70322F11923A95E9F7CE018B589F4FFC0121
S1130B8011922A95E9F7FB01EE0FFF1F2FEA30E0DF
S1130B902C0F3D1FE20FF31F2FEF3FEF3183208314
S1130BA0CD01FE0131962FE037E2219331938E1768
S1130BB09F07D9F7660F771FFE01E60FF71F128212
S1130BC011820F2EFCE14F2E512CF02D2224239460
S1130BD0312CBE01655C7F4FCE0101964BDF4C0189
S1130BE08F3037E2930709F48CC0FC01EE0FFF1F2E
S1130BF081E090E08C0F9D1FE80FF91F33AE22AE09
S1130C00BE01655C7F4FFE01E155FF4FAE014B58BD
S1130C105F4FAAE3A89DC001A99D900D11248E5693
S1130C209C4F6F01BAE3CB0ED11CDE0111969401E7
S1130C30220F331F5D01A20EB31E3A01620E731E12
S1130C40C551DF4FB983A883CB5ED040DB012D9122
S1130C503D91BD01232BD1F5DC012D913C91211552
S1130C603105A1F1D501ED90FC90E20EF31EC551C2
S1130C70DF4FA881B981CB5ED0400D911C91E01665
S1130C80F1060CF05CC091828082D3012D913C91DD
S1130C902F5F3F4FDA012D933C93C551DF4FA8815D
S1130CA0B981CB5ED040ED92FC9210C0D3012D915E
S1130CB03C912F5F3F4FDA010D911C911197201742
S1130CC0310724F4918280822D933C9332964E5FB7
S1130CD05F4FC551DF4F28813981CB5ED0402E5FF5
S1130CE03F4FC551DF4F39832883CB5ED0400296F6
S1130CF0EC15FD0509F0AACF31E0431A510809F0BB
S1130D0068CFC751DF4FE881F981C95ED040EE0F4B
S1130D10FF1FEC0FFD1F818192818F30974209F1F3
S1130D201092910310929003C751DF4F688179812B
S1130D30C95ED040CE0181559F4FC1DE12C0D5019E
S1130D400D911C91200F311FC551DF4FA881B9812E
S1130D50CB5ED0400D911C912017310709F0B6CF1E
S1130D60A5CFC451DF4F0FB6F894DEBF0FBECDBF81
S1130D70DF91CF911F910F91FF90EF90DF90CF9073
S1130D80BF90AF909F908F907F906F905F904F90A7
S1130D903F902F9008952DE1289FF001299FF00D99
S1130DA01124E60FF71FEE0FFF1FEE56FC4F1182C2
S1130DB01082269FF001279FF00D1124E80FF91FE0
S1130DC0EE0FFF1FEE56FC4F1182108240918E03EE
S1130DD050918F03BC018DE190E0A5CE0895CF938F
S1130DE0DF9380919003909191030197181619064F
S1130DF00CF077C0C0E0D0E0FE01EE0FFF1FEC5D09
S1130E00F54F8081918182309105A1F4FE01EE0FAE
S1130E10FF1FEA5DF54F2081318123303105C1F593
S1130E2041E050E063E070E082E090E0B4DFCFEFB7
S1130E30DFEF4DC081319105A1F4FE01EE0FFF1FDC
S1130E40EA5DF54F208131812B30310509F541E010
S1130E5050E06BE070E081E190E09DDFCFEFDFEFE9
S1130E6036C08C309105A1F4FE01EE0FFF1FEA5D40
S1130E70F54F208131812531310551F441E050E0B5
S1130E8065E170E08CE090E086DFCFEFDFEF1FC01C
S1130E90FE01EE0FFF1FEA5DF54F60817181DADC20
S1130EA0BC018091700390917103BEDD009719F429
S1130EB081E00EDB0CC01816190624F46ADA81E00E
S1130EC007DB05C099231CF484DA81E001DB219659
S1130ED080919003909191030197C817D9070CF45E
S1130EE08BCFDF91CF9108958130910599F481E002
S1130EF090E0909381038093800380918403909188
S1130F008503029709F583E090E090938103809331
S1130F10800349C08230910539F482E090E09093D7
S1130F2081038093800328C0039739F483E090E021
S1130F30909381038093800336C0809180039091C5
S1130F40810381309105A9F48091840390918503F4
S1130F50FC01EE0FFF1FE85AFC4F208131813093D2
S1130F6083032093820301969093850380938403E3
S1130F70089582309105A9F48091880390918903A2
S1130F80FC01EE0FFF1FEC5AFC4F2081318130939E
S1130F9083032093820301969093890380938803AB
S1130FA008950397A1F48091860390918703FC012F
S1130FB0EE0FFF1FE05BFC4F2081318130938303F0
S1130FC02093820301969093870380938603089568
S1130FD0CF93DF93CDB7DEB72C970FB6F894DEBF6F
S1130FE00FBECDBF02DB8DE190E003DB20DB8CE0A4
S1130FF0E4E7F3E0DE01119601900D928A95E1F7A2
S113100081E090E090938D0380938C0310928B0386
S113101010928A0380E090E0880F991FFC01E45A43
S1131020FC4F4081518150938F0340938E03609114
S11310308C0370918D038DE190E075DDD0DEE0913D
S11310408A03F0918B03EE0FFF1F81E090E08C0F79
S11310509D1FE80FF91F8081918146DF4091820333
S11310605091830350938F0340938E03E0918A033E
S1131070F0918B03EE0FFF1FE45AFC4F60817181E6
S11310808DE190E050DDABDE80918A0390918B037B
S1131090019690938B0380938A03181619060CF01B
S11310A0BBCF9FEF21EE84E0915020408040E1F7D8
S11310B000C0000080E090E02C960FB6F894DEBFEC
S11310C00FBECDBFDF91CF9108955058BB27AA27FB
S11310D00ED04DC13ED130F043D120F031F49F3FCA
S11310E011F41EF433C10EF4E095E7FB29C1E92F96
S11310F04FD180F3BA17620773078407950718F076
S113110071F49EF567C10EF4E0950B2EBA2FA02D55
S11311100B01B90190010C01CA01A0011124FF27A0
S1131120591B99F0593F50F4503E68F11A16F0409B
S1131130A22F232F342F4427585FF3CF469537959A
S11311402795A795F0405395C9F77EF41F16BA0B5F
S1131150620B730B840BBAF09150A1F0FF0FBB1F0D
S1131160661F771F881FC2F70EC0BA0F621F731F56
S1131170841F48F4879577956795B795F7959E3FB3
S113118008F0B3CF9395880F08F09927EE0F979541
S1131190879508950CD0EBC0E3D040F0DAD030F05E
S11311A021F45F3F19F0CCC0511115C1CFC0F0D06C
S11311B098F39923C9F35523B1F3951B550BBB271A
S11311C0AA2762177307840738F09F5F5F4F220FC7
S11311D0331F441FAA1FA9F333D00E2E3AF0E0E8C0
S11311E030D091505040E695001CCAF729D0FE2F0C
S11311F027D0660F771F881FBB1F2617370748079E
S1131200AB07B0E809F0BB0B802DBF01FF27935853
S11312105F4F2AF09E3F510568F092C0DCC05F3FEB
S1131220ECF3983EDCF3869577956795B795F7953B
S11312309F5FC9F7880F911D9695879597F9089533
S1131240E1E0660F771F881FBB1F621773078407CF
S1131250BA0720F0621B730B840BBA0BEE1F88F7DE
S1131260E095089504D06894B111B5C0089598D05C
S113127088F09F5790F0B92F9927B751A0F0D1F07B
S1131280660F771F881F991F1AF0BA95C9F712C005
S1131290B13081F09FD0B1E008959CC0672F782FC2
S11312A08827B85F39F0B93FCCF386957795679571
S11312B0B395D9F73EF490958095709561957F4FDD
S11312C08F4F9F4F0895E89409C097FB3EF4909583
S11312D08095709561957F4F8F4F9F4F9923A9F00B
S11312E0F92F96E9BB279395F6958795779567959A
S11312F0B795F111F8CFFAF4BB0F11F460FF1BC0DE
S11313006F5F7F4F8F4F9F4F16C0882311F096E970
S113131011C0772321F09EE8872F762F05C066231E
S113132071F096E8862F70E060E02AF09A95660FD7
S1131330771F881FDAF7880F9695879597F9089590
S113134097F99F6780E870E060E008959FEF80EC74
S1131350089500240A941616170618060906089517
S113136000240A9412161306140605060895092E7D
S11313700394000C11F4882352F0BB0F40F4BF2BEC
S113138011F460FF04C06F5F7F4F8F4F9F4F08952C
S113139057FD9058440F551F59F05F3F71F0479522
S11313A0880F97FB991F61F09F3F79F08795089507
S11313B0121613061406551FF2CF4695F1DF08C026
S11313C0161617061806991FF1CF86957105610543
S11313D008940895E894BB2766277727CB0197F9EB
S11313E008950BD0C4CFB5DF28F0BADF18F09523E9
S11313F009F0A6CFABCF1124EECFCADFA0F3959F9F
S1131400D1F3950F50E0551F629FF001729FBB27E7
S1131410F00DB11D639FAA27F00DB11DAA1F649F93
S11314206627B00DA11D661F829F2227B00DA11D46
S1131430621F739FB00DA11D621F839FA00D611DCC
S1131440221F749F3327A00D611D231F849F600DED
S1131450211D822F762F6A2F11249F5750408AF026
S1131460E1F088234AF0EE0FFF1FBB1F661F771FB2
S1131470881F91505040A9F79E3F510570F060CFEE
S1131480AACF5F3FECF3983EDCF38695779567959A
S1131490B795F795E7959F5FC1F7FE2B880F911DD0
S11314A09695879597F90895FA01EE0FFF1F3096E8
S11314B02105310599F16115710561F48038BFE3A7
S11314C09B0749F168949038810561F08038BFEF3B
S11314D09B0741F0992342F5FF3FE10531052105C2
S11314E011F1E8940894E795D901AA2329F4AB2FC4
S11314F0BE2FF85FD0F310C0FF5F70F4A695E0F73D
S1131500F73950F019F0FF3A38F49F779F930CD0D5
S11315100F9007FC905808953EF018CF60E070E0FB
S113152080E89FE308954FE79F775F934F933F933E
S11315302F939ED02F913F914F915F9152DF05C021
S113154019F40EF0FDCE46CF01CF2ADFC8F396384A
S1131550C0F707F80F92E8942BE33AEA48EB5FE709
S11315604EDF0F920F920F924DB75EB70F92C0D01D
S1131570E4EEF0E016D04F915F91EF91FF91E59585
S1131580EE1FFF1F49F0FE57E0684427EE0F441F8B
S1131590FA95E1F74195550B32D00F9007FE26C01E
S11315A00895DF93CF931F930F93FF92EF92DF92EF
S11315B07B018C01689405C0DA2EEF011EDFFE0169
S11315C0E894A5912591359145915591AEF3EF019C
S11315D08EDDFE019701A801DA9479F7DF90EF9090
S11315E0FF900F911F91CF91DF9108959B01AC0162
S11315F060E070E080E89FE3CDCDA2CEACC0D0DE49
S1131600E8F39923D9F3940F511DBBF39150504043
S113161094F059F0882332F0660F771F881F915099
S11316205040C1F79E3F510544F7880F911D969590
S1131630879597F908955F3FACF0983E9CF0BB27DF
S1131640869577956795B79508F4B1609395C1F73A
S1131650BB0F58F711F460FFE8CF6F5F7F4F8F4FD8
S11316609F4FE3CFB8CE0EF076C070CE689468CEAC
S113167097DEC8F39923D1F3C6F3DF93CF931F9377
S11316800F93FF92C92FDD2788232AF02197660F35
S1131690771F881FDAF720E030E040E85FEB9FE334
S11316A0883920F0803E30F021968F770FDDECE012
S11316B0F1E003C00BDDE9E3F1E073DF8B01BE0170
S11316C0EC01FB2E6F5771097595771F880B990BE9
S11316D0FCDD28E132E741E35FE38FDEAF2D9801C3
S11316E0AE01FF900F911F91CF91DF9100DD3FCEAE
S11316F0FA01DC01AA0FBB1F9B01AC01BF5728F400
S113170022273327442750781FC0B75188F4AB2FC2
S11317100024469537952795011CA395D2F3002004
S113172069F0220F331F441FB395DAF30DD0CDCCEB
S113173061307105A0E88A07B94630F49B01AC0119
S11317406627772788279078309621F02083318385
S11317504283538308959F3F31F0915020F487953D
S113176077956795B795880F911D9695879597F905
S10917700895F894FFCF78
S1131776280009002900290008002900290007007B
S11317862900290003002900290004002900290052
S11317960500290029000600280028000D0029005C
S11317A629000C0029002900000029002900000056
S11317B6290029000000290029000A00290029001F
S11317C60B00280028000000290029000000290039
S11317D629001300280028000200280028000E0013
S11317E629002900000029002900000028002800FB
S11317F60000290029000000290029000000280013
S11318062800010028002800000029002900000003
S113181629002900000028002800160029002900B4
S113182615002900290014002900290000002800B9
S113183629000F00290029001000290029001100A1
S11318462800280017002800280000002800280087
S1131856000028002800180028002800000028009E
S11318662800000028002800120028002800000094
S1131876290029000000290029000000280028006A
S1131886190028002800000029002900000029006A
S11318962900000028002800000029002900000073
S11318A6290029001C00280028001A002800280006
S11318B61B00290029000000290029000000280037
S11318C61B001C0015001700120010000400050080
S11318D606000700080009000000000000000000E0
S11318E601002800010000000100010002000200BE
S9030000FC
